:1000000023C032C031C030C02FC0F6C02DC02CC0BC
:100010002BC02AC029C028C027C026C025C0000088
:100020000000370000000000380002020202020255
:10003000020202020102040810202004100801023A
:10004000000004000000000011241FBECFE5D2E034
:10005000DEBFCDBF20E0A0E6B0E001C01D92AD360E
:10006000B207E1F713D184C1CBCF81E087B9369ACB
:100070003699FECF84B195B1089590E0FC01E25C21
:10008000FF4F3491FC01EC5CFF4F2491FC01E65DD5
:10009000FF4FE491EE23B9F0332329F0323001F120
:1000A00098F43130C9F0F0E0EE0FFF1FEC5DFF4F28
:1000B000A591B4918FB7F894EC91611114C020957B
:1000C0002E232C938FBF0895333011F0343059F71D
:1000D0008CB58F7D8CBDE7CF8AB58F778ABDE3CF96
:1000E0008AB58F7DFBCF2E2BECCFCF93DF9390E0A3
:1000F000FC01EC5CFF4F2491865D9F4FFC018491D5
:100100008823D1F090E0880F991FFC01E25EFF4F39
:10011000A591B491FC01EC5DFF4FC591D4916111A3
:100120000EC09FB7F8948C91E22FE0958E238C93AC
:100130002881E223E8839FBFDF91CF9108958FB795
:10014000F894EC91E22BEC938FBFF6CF3FB7F89485
:100150008091650090916600A0916700B091680061
:1001600022B708B601FE05C02F3F19F00196A11D68
:10017000B11D3FBFBA2FA92F982F8827BC01CD01F1
:10018000620F711D811D911D46E0660F771F881F4C
:10019000991F4A95D1F708958F929F92AF92BF927F
:1001A000CF92DF92EF92FF924B015C01CFDF6B01A8
:1001B0007C01CCDF6C197D098E099F09683E734074
:1001C00081059105B0F321E0821A9108A108B108D8
:1001D00088EEC80E83E0D81EE11CF11C8114910446
:1001E000A104B10431F7FF90EF90DF90CF90BF9062
:1001F000AF909F908F9008951F920F920FB60F921D
:1002000011242F933F938F939F93AF93BF9380912C
:10021000610090916200A0916300B0916400309100
:10022000600020E3230F2D3758F54096A11DB11D26
:10023000209360008093610090936200A09363001C
:10024000B09364008091650090916600A091670072
:10025000B09168000196A11DB11D80936500909337
:100260006600A0936700B0936800BF91AF919F9123
:100270008F913F912F910F900FBE0F901F90189567
:1002800023EB230F4196A11DB11DD2CF78948AB5DF
:1002900082608ABD8AB581608ABD83B7826083BF70
:1002A00083B7816083BF89B7826089BF80B782606E
:1002B00080BF3298319A309A379A8CB580648CBD61
:1002C00060E087E012DF61E084E00FDF61E081E061
:1002D0000CDF61E084E0D1DEC8DE092E000CAA0B41
:1002E000BB0B8093690090936A00A0936B00B0935E
:1002F0006C00C3E060E971E080E090E04DDF60E019
:1003000084E0BBDE60E971E080E090E045DF61E021
:1003100084E0B3DEC15071F7C0E0D0E0A6DE092E64
:10032000000CAA0BBB0B4091690050916A006091D0
:100330006B0070916C004C5E5F4F6F4F7F4F4817A2
:1003400059076A077B0778F460E084E096DE60E096
:1003500080E093DE6AE070E080E090E01DDF2097AF
:10036000E9F24EDEDBCF61E084E087DE61E0F0CFD2
:04037000F894FFCF2F
:00000001FF
